:020000040000fa
:080000000001040000000000f3
:020000040000fa
:100008008003000050030000560300005c0300005a
:1000180062030000800300008003000080030000ea
:1000280080030000800300008003000090010000ae
:1000380080030000800300007202000080030000bb
:1000480080030000280300003c0300008602000033
:10005800800300008003000080030000800300008c
:10006800800300008003000080030000800300007c
:10007800800300008003000080030000800300006c
:10008800800300008003000080030000800300005c
:10009800800300008003000080030000800300004c
:1000a800800300008003000080030000800300003c
:1000b800800300008003000080030000800300002c
:1000c800800300008003000080030000800300001c
:1000d800800300008003000080030000800300000c
:1000e80080030000800300008003000080030000fc
:0800f8008003000080030000fa
:020000040000fa
:1001080080030000680300006e0300007403000011
:100118007a030000800300008003000080030000d1
:1001280080030000800300008003000090010000ad
:1001380080030000800300007202000080030000ba
:1001480080030000280300003c0300008602000032
:10015800800300008003000080030000800300008b
:10016800800300008003000080030000800300007b
:10017800800300008003000080030000800300006b
:10018800800300008003000080030000800300005b
:10019800800300008003000080030000800300004b
:1001a800800300008003000080030000800300003b
:1001b800800300008003000080030000800300002b
:1001c800800300008003000080030000800300001b
:1001d800800300008003000080030000800300000b
:1001e80080030000800300008003000080030000fb
:0801f8008003000080030000f9
:020000040000fa
:10020000af8920000ebf20000e0188000000000012
:100210000c000700406d20000100200011000700c5
:10022000000020000000e000020032000000020098
:10023000000000006a070200000000000040da0031
:100240000000fe004440a900000020000000e00083
:100250000300320000002000a00188004440a800f4
:100260000000060091018800800078000000eb008b
:1002700015003700e280400032a0b4009101ba00be
:10028000e280400032a0b4009102ba00e280400057
:1002900032a0b4000002eb00472bde00f507b200ed
:1002a000602ce10004003a000059eb008301e900f2
:1002b000fdff3e00040037006128e100010032002c
:1002c0000082eb00040007001101ba000200e00008
:1002d000e8ff3a00000006003159ba008301e90046
:1002e0000c0032002159ba008301e90008003200f5
:1002f0000400e00003003a00e280400032a0b400b5
:10030000f5ff370011d9ba008301e900faff3a007e
:100310008100e800e180400032a0b4000000060047
:100320003600f800809fbe00829fbe00849fbe0002
:10033000869fbe003400f80000002000a001880065
:100340000000fa00d143800010c0b30082382100c1
:10035000828f5000010032000040eb008100e80075
:10036000d1438800e04f500003003200100020000d
:10037000e043880017003700d143800010c0b3006d
:10038000f2702200828f500001003c000040eb0020
:100390008100e800d1438800e04f50000d0032009a
:1003a0000000eb00e043880010042000801088006b
:1003b000e18720009140780000c5b30080cf500055
:1003c00002003a0000c2b3007ee8b7000000eb0074
:1003d000d0438800c0438000ea0f500003003a0079
:1003e000f60007000000eb00c0438800c043800017
:1003f000c200dd0000852000008040001000780071
:10040000e00f500023003200c0438000c200dd0036
:10041000008520000080400010007800e10f5000af
:100420000a003200c0438000c200dd0000852000c9
:100430000080400010007800e20f50000c003a00ed
:10044000e0438000e00f500009003200c14380000b
:10045000c04380004200dd000081e80000852000ec
:10046000000041001000780049010700110037002a
:10047000c1438000c04380004200dd000081e800ed
:100480000085200000004100100078009a0107005c
:1004900008003700c1438000c04380004200dd00f7
:1004a0000081e80000852000000041001000780075
:1004b00091010700c04380000000e800c0438800ad
:1004c0008460a9000080fa003400f9004f03be00e8
:1004d0004f02be004f01be004f00be003600f900c3
:1004e000004006003400f800881f78000800200053
:1004f000a80188004f0478000000fa0084c0a90019
:100500000080fa003400f90000400600809fbe0021
:10051000829fbe003400f80000002000a001880087
:100520000400fa00a042a90040448000e1882000b5
:1005300000004000008040008000eb0001087800cf
:1005400000282000100798000000eb00000f780042
:10055000110037004144800040448000e2882000c0
:100560000000400000004100100178001e009000d3
:100570001000780000014100e388200081804000e5
:1005800081804100820878008000e8001e00900011
:10059000010878001e0fe8001e007800ef0f5000e1
:1005a000ecff34004044800041448000e288200099
:1005b000818040008100410091007800c488de0005
:1005c000e28820000000400000004100010878009f
:1005d0004144800010c0b300e48f5000010032009d
:1005e0000040eb008100e80041448800e04f5000eb
:1005f000020032000000eb004044880040448000cc
:1006000001882000000040000080400010007800b9
:10061000004078006f4060000080fb006f006000c9
:100620003215800001ff2f00810061000080700002
:10063000301588008560a900a042a8000080fa005b
:100640003400f9004f01be004f00be00004006001c
:100650003400f800881f780008002000a8018800f6
:100660004f0478000000fa008520a9000080fa00fd
:100670003400f900004006003400f800881f7800bc
:1006800008002000a80188004f0478000000fa004c
:100690008540a9000080fa003400f90000400600ff
:1006a0000000fa008020a900ffff37000000fa00d8
:1006b0008060a900ffff37000000fa008040a90019
:1006c000ffff37000000fa008080a900ffff37001d
:1006d0000000fa008020a900ffff37000000fa00a8
:1006e0008060a900ffff37000000fa008040a900e9
:1006f000ffff37000000fa008080a900ffff3700ed
:080700000000fa00ffff3700c2
:020000040000fa
:100708000000fa0051168000f0e72f00008060001a
:100718005016880081168000f0ff290000806000d4
:1007280080168800b116800030ff2f00008060001e
:10073800b0168800e1168000f0ec2f000080600001
:10074800e016880011178000c0fb2f0000806000b1
:10075800101788000080fa00000006000000fa0068
:1007680031168000001820000080700030168800c4
:100778006116800000002600008070006016880066
:1007880090168000c000b30090168800c116800043
:100798000013200000807000c0168800f116800049
:1007a8003004200000807000f01688000080fa00f5
:1007b800000006000000fa000080fa0000000600b1
:1007c8000000fa00de22a900f01680000000d10027
:1007d800614060000080fb0061006000f21680004c
:1007e800e1ff2f008100610000807000f016880092
:1007f800f016800000407800614060000080fb0037
:10080800610060004300dd009216800071ff2f0038
:1008180081006100008070009016880090168000aa
:100828004300de00614060000080fb006100600062
:100838004200dd0092168000b1ff2f0081006100a8
:100848000080700090168800901680004200de003c
:10085800614060000080fb00610060004e00dd0028
:1008680062168000f1ff2b0081006100008070009b
:1008780060168800cda2a900601680004d00de0039
:10088800614060000080fb00610060004800dd00fe
:10089800c2168000f1ef2f00810061000080700017
:1008a800c0168800c01680004800de006140600065
:1008b8000080fb00610060004500dd00c21680007a
:1008c800f1fd2f008100610000807000c0168800d3
:1008d800c01680004500de00614060000080fb001b
:1008e800610060004400dd00c2168000f1fe2f00a8
:1008f8008100610000807000c016880080ff07003a
:100908000080fa00000006000600fa0010079800b0
:1009180021079800110020002e0090000008dd003b
:10092800000f78001e009000900078001e007800ec
:10093800808070001e009000010878000080fa0096
:10094800000006000600fa0010079800210798002a
:100958000000eb00000f7800110020002e0090002e
:100968000008dd00008fea001e009000900078006b
:100978001e007800808060001e009000010878004a
:100988000080fa00000006000400fa00000f78005a
:100998001107980071ff07001e0090004300dd005a
:1009a8008080e800008020000080400090007800ef
:1009b8001e0090004301dd0000802000000041007f
:1009c80010007800dfff07001e0090004300dd00e4
:1009d800e600400000802000008040009000780081
:1009e8001e0090004300dd006401400000802000ec
:1009f8000000410010007800d2ff0700000000004e
:100a08001e007800e10f50001c003a001e00900004
:100a18004300dd008080e800008020000080400066
:100a2800900078001e0090004301dd000080200047
:100a3800000041001000780064004000b2ff070089
:100a48001e0090004300dd00e6004000008020000a
:100a580000804000900078001e0090004300dd00f8
:100a68006401400000802000000041001000780070
:100a780064004000b3ff07001b0037001e00900011
:100a88004300dd008080e8000080200000804000f6
:100a9800900078001e0090004301dd0000802000d7
:100aa800000041001000780064004000a5ff070026
:100ab8001e0090004300dd00e6004000008020009a
:100ac80000804000900078001e0090004300dd0088
:100ad8006401400000802000000041001000780000
:100ae8006400400088ff07000080fa00000006004c
:100af8000400fa00000f78001107980017ff07009c
:100b08001e0090004300dd008080e8000080200087
:100b180000804000900078001e0090004301dd0036
:100b280000802000000041001000780085ff0700c9
:100b38001e0090004300dd00e60040000080200019
:100b480000804000900078001e0090004300dd0007
:100b5800640140000080200000004100100078007f
:100b680078ff0700000000001e0090004300dd0031
:100b78008080e8000080200000804000900078001d
:100b88001e0090004301dd000080200000004100ad
:100b980010007800640040006aff07001e00900003
:100ba8004300dd00e6004000008020000080400097
:100bb800900078001e0090004300dd0064014000b2
:100bc8000080200000004100100078006400400010
:100bd8005cff07000080fa00000006000000fa0031
:100be8000000eb00200888000000eb0000088800e7
:100bf800409c20001008880021088000f0fc2f008d
:100c0800008060000040a000200888000421a9009e
:100c1800a1048000f0ff280080806000000024000c
:100c280000807000a00488008460a9008c60a8007f
:100c380005e1a8000080fa00000006000000fa00a4
:100c48000000eb00800888000000eb0030088800f6
:100c58000080eb0060088800810880000003200005
:100c680000807000800888000421a9000000eb00c3
:100c780000088800b1048000f08f2f008080600099
:100c88000040200000807000b004880084c0a900e3
:100c98008cc0a80011e1a8000080fa00000006003e
:100ca8000000fa0010fb2f0040158800000e2000fd
:100cb8000015880010002000301588000000eb00a7
:100cc80050158800f0f3200020158800c00320008c
:100cd8001015880011158000f0ff21008080600049
:100ce8000000220000807000101588008560a900af
:100cf8008d60a800a042a800a1e2a8000080fa0028
:100d0800000006000000fa000de2a900de42a8007b
:100d1800de62a900dea2a9000d42a90061108000d0
:100d280090ff2f0000806000601088000c02a9006e
:100d380071108000f0f32f000080600070108800b0
:100d48000ea2a90080202000a01088000de2a800b3
:100d58000f42a8000080fa00000006000000fa0018
:100d68009eff0700b5ff0700d202a800dea2a90077
:100d7800de62a900d802a900d822a900d842a90099
:100d8800d862a900dec2a800c6e2a800c702a8006f
:100d9800c3ff0700dbff07000080fa000000060021
:020000040000fa
:100da80078080000120000000200000000000000a7
:100db80000000000200001000002000003000600ff
:100dc8000000000098080000020000000200000077
:100dd800000000008a0800000e000000000000006b
:100de800000800007800000002000000d80205009a
:100df80000d202000300d80002040000d20203005f
:100e080000cc02000d00d20002020000d802080047
:100e180000d202000200d80002050000d20202003f
:100e280000d802000400d20002020000cc020d002b
:100e380000cc02000e00d80002080000cc020e0010
:100e480000d802000500cc00020e0000d802040001
:100e580000cc02000e0000000000000000000000ae
:100e68000000000000000000000100000000010078
:100e78000000000000000000000100000000000069
:100e88000002000001000100000000000000000056
:020000040000fa
:100e98000000fa0031fe0700c144800010c0b30012
:100ea800ea8f5000010032000040eb008100e800aa
:100eb800c1448800e04f5000020032000000eb00ff
:100ec800c04488000080fa00000006000000fa0014
:100ed80015000700a1ff0700110a800080ff2f00fe
:100ee80000806000100a8800d202a800e2a2a900cf
:100ef800dc22a800dc42a900dc62a800a016800061
:100f080000407800614060000080fb00a04288003b
:100f1800401680004800de00614060000080fb0051
:100f2800c0428800f5ff37000000fa000080fa0090
:040f380000000600af
:020000040000fa
:0200000401f009
:04000000f3bf00004a
:020000040000fa
:0200000401f009
:04000400ff7f00007a
:020000040000fa
:0200000401f009
:040008006cff000089
:00000001FF
